:040000000200B13217
:01000B0032C2
:0100130032BA
:01001B0032B2
:0100230032AA
:03002B0002790A4D
:03003300028586BD
:01003B003292
:01004300328A
:03004B00027FB67B
:01005300327A
:01005B003272
:01006300326A
:01006B003262
:01007300325A
:03007B00025286A8
:0301270002007E55
:03007E0002036416
:10012A00C082C083E5812404F5817C007D00C3740C
:10013A00C89C74808DF063F08095F0500B7490C366
:10014A009CFA74019DFB80048C028D03E58124FBDB
:10015A00F886078F82C007C005C004C003C0021218
:10016A002472D002D003D004D005D007E58124FD43
:10017A00F8E4F608F6E58124FDF8C3E69A08E66491
:10018A00808BF063F08095F0501DE58124FDF8A97D
:10019A008119E6F708E609F7E58124FDF8740126D6
:1001AA00F6E40836F680CE8F82C005C004C003C0CC
:1001BA000212247FD002D003D004D005E58124FDA9
:1001CA00F8E4F608F674C8C39AFEE49BFFE58124B6
:1001DA00FDF8C3E69E08E664808FF063F08095F030
:1001EA00501DE58124FDF8A98119E6F708E609F70B
:1001FA00E58124FDF8740126F6E40836F680CE0C73
:10020A00BC00010DC3EC9490ED648094815003020C
:10021A000138E58124FAF58122E5812408F5817EF9
:10022A000C7F78E58124F9FD7B077C00EC20E71739
:10023A00EB2DF98E828F83E0FAA3AE82AF83A702F9
:10024A001BBBFF011C80E574072DF987077E00742C
:10025A00062DF987048C037C00EF4204EE420389E1
:10026A00077E007A40C005C004C0037402C0E0E4FF
:10027A00C0E0C007C006C002900FAD75F00012883A
:10028A00FFE58124FBF581D003D004D00590FA92D2
:10029A00E493FEA3E493FFC007C006C005C004C0F0
:1002AA000374CDC0E074ABC0E01202B88008C00687
:1002BA00C0079000022215811581D003D004D00511
:1002CA00D006D00790FA92E493FEA3E493FFC00706
:1002DA00C006C005C004C0031202E78008C006C0F9
:1002EA00079000032215811581D005D006D007900A
:1002FA00FA92E493FEA3E493FFC007C006C0057414
:10030A0019C0E0E4C0E01203158008C006C00790D7
:10031A0000012215811581D005D006D00790FA96E2
:10032A00E493FEA3E493FF7C007B40C007C00674FD
:10033A0008C0E0E4C0E0C005C004C00312034B805B
:10034A0008C006C00790000B22E58124FBF581D086
:10035A0006D007E58124F8F5812212784612A6DB39
:10036A0012533812244975820312247F9000021214
:10037A00012A121252121AC6905F99121AB9126100
:10038A009B90000112012A90F92175F08012862CA7
:10039A0090F93E75F08012862C90624AE0FFBF8D7C
:1003AA00028030BF95028020BFA5028005BFB52C10
:1003BA00800B90F95475F08012862C801F90F95B9F
:1003CA0075F08012862C801490F96275F08012867E
:1003DA002C800990F96975F08012862C90F9707555
:1003EA00F08012862C906277E0FF0F8F8212865778
:1003FA0090F97875F08012862C1224199000001258
:10040A009CFAE4C0E0C0E0C0E0901B9875F00012CE
:10041A000D1F15811581158112A03B126809120260
:10042A0023E4C0E0C0E0C0E0901BC375F000120DE9
:10043A001F15811581158190F9FDE493FEA3E493BC
:10044A00FFC007C0067401C0E0E4C0E012045B808C
:10045A0008C006C0079000812215811581D006D0F8
:10046A000790FA06E493FEA3E493FFC007C006745C
:10047A0001C0E0E4C0E01204858008C006C007900D
:10048A0000812215811581D006D00790F98FE49357
:10049A00FEA3E493FFC007C0067401C0E0E4C0E015
:1004AA001204AF8008C006C007900081221581158A
:1004BA0081D006D00712688890F98175F08012748D
:1004CA004912241D90000412012A122421900EEBD5
:1004DA00E0603F122CDAE5828583F045F0602E1247
:1004EA002CF6AE82AF83C007C00612782FAC82AD5D
:1004FA0083D006D007EEC39CFEEF9DFF1EBEFF0110
:10050A001FC374FF9E747F9F5003122A2B900EEB19
:10051A00E4F0121471AE82AF83EE70AE90FA8AE400
:10052A0093FEA3E493FF8E828F83120081AE82AF83
:10053A00838E088F09E5084509608F127A1990FAA7
:10054A0084E493FEA3E493FFC007C006127D6CAB5C
:10055A0082AC83ADF0D006D0077480C0E0E4C0E07E
:10056A0012056F800BC006C0078B828C838DF02228
:10057A00AE82AF83158115818E088F09E50845097A
:10058A0070030204D4850882850983127D6090FA7B
:10059A00D9E493FEA3E493FFC007C0068E828F833B
:0A05AA00120081D006D0070204D42D
:10F92100436F6E74696B692D332E782D3331343802
:10F931002D676561626231636533640A0054492051
:10F941006363323533312055534220446F6E676C07
:10F95100650A006363323533300063633235333116
:10F961000063633235333300636332353430002D45
:10F97100463235362C20004B42205352414D0A006D
:1005B400C082C083C0F0058105810581E58124FBEB
:1005C400F886820886830886F012AC85FC601ABC23
:1005D40002028038BC04030206E2BC06030207A53B
:1005E400BC08030207C10207DD125F6B120B78120D
:1005F4000C62E4C0E0C0E0C0E0C0E0C0E07582018D
:10060400128042E58124FBF5810207F4E58124FB95
:10061400F8740126FAE40836FB0886048A828B8380
:100624008CF012AC85FAA312AC85FBA312AC85FC4A
:10063400A312AC85FFC3EA9401EB9400EC9400EFA1
:100644009400405DE58124FBF8740526FFE4083638
:10065400FE0886058F828E838DF0A881181812AC4F
:1006640085F6A312AC8508F6A312AC8508F6A8811A
:10067400181886820886830886F012AC85FE7D00F1
:100684008E828D83120BC1E4C0E0C0E0C0E0C0E004
:10069400C0E0758203128042E58124FBF5810207E4
:1006A400F4E58124FBF8740526FDE40836FE08868B
:1006B400078D828E838FF012AC85FDA312AC85FE6C
:1006C400A312AC85FFC002C003C005C006C00775F5
:1006D40082FF128042E58124FBF5810207F4E58163
:1006E40024FBF8A9811919740126F7E4083609F7DF
:1006F40008E609F7A881181886820886830886F018
:1007040012AC85FAA312AC85FBA312AC85FCA31230
:10071400AC85FFEA4B4C4F606F758202122472A8BD
:1007240081181886820886830886F012AC85FEA399
:1007340012AC85FFE58124FBF8740526FBE408363A
:10074400FC0886058B828C838DF012AC85FBA3128A
:10075400AC85FCA312AC85FDC006C0078B828C83DC
:100764008DF0120C6815811581E4C0E0C0E0C0E092
:10077400C0E0C0E0758205128042E58124FBF5816A
:1007840075820212247F8068E4C0E0C0E0C0E0C04B
:10079400E0C0E07582FF128042E58124FBF5818090
:1007A4004F120C01E4C0E0C0E0C0E0C0E0C0E0755E
:1007B4008207128042E58124FBF5818033120C62AA
:1007C400E4C0E0C0E0C0E0C0E0C0E075820912808F
:1007D40042E58124FBF5818017E4C0E0C0E0C0E07D
:1007E400C0E0C0E07582FF128042E58124FBF58100
:1007F400E58124FAF58122C082C083C0F0E581241A
:1008040005F5817C0124F9F886820886830886F040
:1008140012AC85FAA312AC85FBBA0005BB000280BA
:100824000CBADD06BB00030209C20209D5120B781B
:1008340090000B120BC1120CB0E5828583F045F0D9
:10084400700302098674FEC0E0E4C0E090000675FF
:10085400F000120CC1AA82AB8315811581E58124B5
:10086400FCF8A60208A603E58124FCF8C3E4967408
:10087400800886F063F08095F04003020986758253
:1008840004127F08AA82900004EAF0758203127FA2
:1008940008AA82900005EAF0120D09E5828583F02A
:1008A40045F0700302098690010412762AAA82ABED
:1008B40083A8811818A60208A603087600A8811840
:1008C40018E608467003020986A8811818860508E8
:1008D40086060886077404C0E07401C0E0E4C0E042
:1008E4008D828E838FF0128992158115811581E591
:1008F4008124FCF8740226FEE40836FFA881181847
:10090400740426FAE40836FB088605C006C007749A
:1009140004C0E07400C0E0E4C0E08A828B838DF000
:100924001288FFE58124FBF58124FCF886027F0010
:1009340074022AFAE43FFF3395E0FEFDA8811818FB
:1009440086820886830886F0EA1274F8A3EF12748C
:10095400F8A3EE1274F8A3ED1274F8A8811818869F
:1009640005088606088607C005C006C0079001046E
:10097400E0C0E0901B3A75F0001214A9E58124FC54
:10098400F581901B48E0FAA3E0FBA3E0FFE4C0E09C
:10099400C0E0C0E07485C0E08A828B838FF01214BB
:1009A400A9E58124FCF5817C0024F9F88682088677
:1009B400830886F074DD1274F8A3E41274F8EC6012
:1009C4000BE58124F6F8B6850302083A75820180A6
:1009D40018E58124F9F886820886830886F0E412F3
:1009E40074F8A31274F8758203E58124F8F5812262
:1009F400058105810581AD82AE83AFF07C0112AC27
:100A040085FAA312AC85FBBA0005BB0002800BBAC1
:100A1400F605BB00028024020B60C007C006C005B7
:100A2400125F79D005D006D0077C008D828E838F2B
:100A3400F074F61274F8A3E41274F8EC700675827C
:100A440001020B71900104E0FCE58124FBF8E6B59A
:100A5400043C758202C007C006C005122472D0058A
:100A6400D006D007E58124F8F886020886030886B4
:100A7400048A828B838CF0C007C006C005127FFFF6
:100A840075820212247FD005D006D007809B900D7A
:100A9400B1E0FCE58124FBF8E6B5048DE58124F89A
:100AA400F88602088603088604EA4B7003020A2DBE
:100AB400C005C006C0078A828B838CF0C007C006BD
:100AC400C005C004C003C0021205B4D002D003D0D4
:100AD40004D005D006D00774052AFDE43BFE8C073C
:100AE4008D828E838FF0E58124FBF812AC85F6A30A
:100AF40012AC8508F6A312AC8508F6D007D006D050
:100B040005A8811818E60846603AC005C006C00763
:100B1400E58124FBF886050886060886078D828E03
:100B2400838FF0C007C006C005C004C003C0021212
:100B3400162DD002D003D004D005D006D007D0079C
:100B4400D006D0058A828B838CF0C007C006C0050E
:100B540012162DD005D006D007020A2D8D828E8361
:100B64008FF0E41274F8A31274F8758203158115DA
:040B74008115812244
:09F981003A1B00311B00000000DC
:10FB1D00000000FB0700000000000000F4090000D9
:02FB2D000000D6
:100B7800900105740BF0E4A3F0901B43E0F5F0A39B
:100B8800E045F0703190FA7CE493FEA3E493FFC053
:100B980007C0068E828F83120081D006D00790018D
:100BA80005E0FEA3E0FF8E828F83120BC1901B43EA
:100BB8007401F0E4A3F0020C62AE82AF83900105E9
:100BC800EEF0EFA3F090FA92E493FCA3E493FDC057
:100BD80007C006C005C004C006C007120BE880089D
:100BE800C004C0059000012215811581D004D005EC
:100BF800D006D0078E828F832290FA8EE493FEA3CC
:100C0800E493FFC007C0068E828F83120081D0064E
:100C1800D00790FA92E493FEA3E493FFC007C006BE
:100C2800E4C0E0C0E0120C328008C006C0079000A3
:100C3800042215811581D006D00790FA8CE493FE22
:100C4800A3E493FFC007C0068E828F83120081D071
:100C580006D0079001077401F022900107E4F02202
:100C6800C082C083C0F090FA82E493FBA3E493FCB3
:100C7800E58124FAF88602088607C002C007120C2C
:100C88008B8012C003C004E58124F8F886820886A8
:100C9800830886F022AB82AC83158115818B828C08
:100CA800831581158115812290FA8AE493FEA3E4C5
:100CB80093FF8E828F83020081C082C083C0F09030
:100CC800FA84E493FBA3E493FCE58124FAF8860212
:100CD800088607C002C007120CE48012C003C004D3
:100CE800E58124F8F886820886830886F022AB829C
:100CF800AC83158115818B828C83158115811581B3
:0D0D080022900107E0FF7E008F828E832283
:02FB2F000000D4
:100D1500900108E0FF04F08F8222C082C083C0F0FA
:100D2500901B45E0FAA3E0FBA3E0FC8A058B068C4B
:100D350007A8811818C005C006C0078682088683E3
:100D45000886F0120083158115811581601AED4E14
:100D550060168D828E838FF012AC85FDA312AC8553
:100D6500FEA312AC85FF80C9A8811818C005C0066E
:100D7500C00786820886830886F0120083158115D0
:100D850081158160028003020E1BA88118188682D6
:100D95000886830886F0EA1274F8A3EB1274F8A3A8
:100DA500EC1274F8A8811818901B45E6F008E6A324
:100DB500F008E6A3F0A8811818740726FDE40836A4
:100DC500FE0886078D828E838FF074011274F8A851
:100DD500811818740526FDE40836FE0886078D82FD
:100DE5008E838FF0E41274F8A31274F8E58124F968
:100DF500F8E6C0E008E6C0E008E6C0E07481C0E0BF
:100E0500E58124FAF886820886830886F012151390
:100E1500E58124FCF58115811581158122C082C0EB
:100E250083C0F0E5812406F581901B48E0FAA3E034
:100E3500FBA3E0FCA8811818A60208A60308A604CF
:100E4500901B45E0FAA3E0FBA3E0FCE58124F8F85C
:100E5500C002C003C00486820886830886F012009B
:100E650083158115811581601AEA4B60168A828B7C
:100E7500838CF012AC85FAA312AC85FBA312AC856A
:100E8500FC80C8EA4B70030210E2E58124F8F8867D
:100E9500820886830886F012159FE5828583F045D2
:100EA500F07003020FE7E58124F8F8740726FAE4E9
:100EB5000836FB0886048A828B838CF0E41274F86A
:100EC500901B45E0FAA3E0FBA3E0FC8A078B068CA8
:100ED50005EF4E6066E58124F8F8C007C006C00539
:100EE50086820886830886F0120083158115811590
:100EF500816032E58124F8F88602088603088604B5
:100F0500C007C006C005C002C003C0047487C0E0A6
:100F15008F828E838DF01210E9E58124FCF581D056
:100F250005D006D0078F828E838DF012AC85FFA386
:100F350012AC85FEA312AC85FD8096E58124F8F8F8
:100F4500740326FAE40836FB0886048A828B838CB0
:100F5500F012AC85FEA312AC85FF4E7003020FE7BD
:100F6500E58124F8F8E58124F3F9E7C0E009E7C055
:100F7500E009E7C0E086820886830886F0120083D0
:100F8500158115811581605AE58124F8F8901B4873
:100F9500E6F008E6A3F008E6A3F08A828B838CF0DE
:100FA50012AC85FAA312AC85FBE58124F8F874052B
:100FB50026FDE40836FE088607C003C002E4C0E04B
:100FC500C0E0C0E07483C0E0120FD2800BC002C045
:100FD500038D828E838FF022E58124FCF581D0027A
:100FE500D003901B45E0FDA3E0FEA3E0FFE58124CF
:100FF500F8F8C005C006C00786820886830886F013
:10100500120083158115811581600280228D828EE3
:10101500838FF012AC85FAA312AC85FBA312AC85C5
:10102500FC901B45EAF0EBA3F0ECA3F00210D1E530
:101035008124FBF8A60508A60608A607E58124FB7A
:10104500F8E6084670030210D1E58124FBF8868294
:101055000886830886F012AC85FAA312AC85FBA33B
:1010650012AC85FCE58124F8F8C002C003C00486F3
:10107500820886830886F012008315811581158103
:1010850060028038E58124F8F88682088683088620
:10109500F012AC85FDA312AC85FEA312AC85FFE56D
:1010A5008124FBF886820886830886F0ED1274F8A1
:1010B500A3EE1274F8A3EF1274F88010E58124FBF7
:1010C500F8A60208A60308A604021041A88118186C
:1010D500901B48E6F008E6A3F008E6A3F0E58124B6
:1010E500F7F58122C082C083C0F0058105810581A5
:1010F500E58124FBF8740726FAE40836FB08860424
:101105008A828B838CF012AC85FF20E003021227C4
:10111500E58124FBF8A9811919740326F7E408363B
:1011250009F708E609F7A881181886820886830852
:1011350086F012AC85FEA312AC85FF4E7003021239
:1011450027E58124FBF8901B48E6F008E6A3F008A4
:10115500E6A3F08A828B838CF074021274F8A8815E
:10116500181886820886830886F012AC85FEA312BD
:10117500AC85FFC002C003C004E58124F8F87405FE
:1011850026FBE40836FC088605C007C004C003C07A
:1011950002E58124EEF8E6C0E008E6C0E008E6C016
:1011A500E0E58124EEF8E6C0E01211B3800BC0063D
:1011B500C0078B828C838DF022AE82E58124FCF5FD
:1011C50081D002D003D004D0077F00BE020BBF0040
:1011D50008D004D003D0028016D004D003D002BEBC
:1011E5000305BF00028008E58124F8F8B68328E5E9
:1011F5008124FBF8E6C0E008E6C0E008E6C0E0E5CB
:101205008124F8F886820886830886F0120E221556
:101215008115811581800B8A828B838CF074011274
:1012250074F8E58124FAF58122AD82AE83AFF090A2
:101235001B48E0C0E0A3E0C0E0A3E0C0E08D828EE3
:10124500838FF0120E2215811581158122900108D8
:10125500748AF090010AE4F0900109F0901B45F0C2
:10126500A3F0A3F0901B48F0A3F0A3F0220581059D
:101275008105819001EBE4F0901B45E0FDA3E0FEC4
:10128500A3E0FFA8811818A60508A60608A607A8C2
:10129500811818E60846700302131FA881181874F0
:1012A5000826FAE40836FB0886048A828B838CF0CC
:1012B50012AC856044A8811818740726FDE4083629
:1012C500FE0886078D828E838FF074011274F88A6A
:1012D500828B838CF0E41274F8C0E0C0E0C0E07447
:1012E50082C0E0E58124FAF886820886830886F0C4
:1012F5001210E9E58124FCF581A881181886820879
:1013050086830886F012AC851818F6A312AC8508FA
:10131500F6A312AC8508F602129415811581158184
:1013250022E5812404F581900109E0FAE0700302C9
:10133500146A90010AE0FE75F007A4FCADF0240BD9
:10134500F582ED3401F583E58124FDF8E0F6EC2422
:101355000BFCED3401FD8C828D83A3A8811818E068
:10136500F6A3E008F6A3E008F68C828D83A3A3A379
:10137500A3E0FCA3E0FDA3E0FF7B000EBE00010B94
:10138500C007C005C004C0027420C0E0E4C0E08E00
:10139500828B8312ACA4AB8215811581D002D00457
:1013A500D005D00790010AEBF0EA14900109F0ECA2
:1013B5004D7070901B45E0FAA3E0FBA3E0FEEA4BFD
:1013C500700302146A9001EBE0600FC006C003C011
:1013D50002121272D002D003D006C006C003C002AA
:1013E500E58124FBF8E6C0E008E6C0E008E6C0E0D9
:1013F500E58124F7F8E6C0E08A828B838EF012102F
:10140500E9E58124FCF581D002D003D0068A828BE0
:10141500838EF012AC85FAA312AC85FBA312AC85C2
:10142500FE809BE58124FDF8B6811474072CFAE44F
:101435003DFB8F068A828B838EF074011274F8A8A7
:10144500811818E6C0E008E6C0E008E6C0E0E581DE
:1014550024FAF8E6C0E08C828D838FF01210E9E55E
:101465008124FCF581E58124FCF581229001EBE0E6
:101475006003121272121326900109E0FF7E00909C
:1014850001EBE07C002FFFEC3E8F82F5832290017B
:1014950009E0FF7E009001EBE07C002FFFEC3E8F22
:1014A50082F58322AD82AE83AFF0900109E0FCBCEA
:1014B50020049000012290010AE02C541FFC75F0D5
:1014C50007A4240BF582740135F0F583A88118185B
:1014D500E6F0EC75F007A4240BFB740135F0FC8BEA
:1014E500828C83A3E58124FBF8E6F008E6A3F008E7
:1014F500E6A3F08B828C83A3A3A3A3EDF0EEA3F068
:10150500EFA3F0900109E02401F090000022AD82E4
:10151500AE83AFF0901B48E0FAA3E0FBA3E0FCC06C
:1015250004C003C002E58124F8F8E6C0E008E6C07F
:10153500E008E6C0E0E58124F8F8E6C0E08D828E9B
:10154500838FF01210E9E58124FCF581D002D003E8
:10155500D004901B48EAF0EBA3F0ECA3F022AD8297
:10156500AE83AFF0ED4E603174072DFAE43EFB8F8C
:10157500048A828B838CF012AC85FCBC010280034B
:10158500BC021674082DFDE43EFE8D828E838FF01D
:1015950074011274F89001EBF022AD82AE83AFF0C6
:1015A50074072DFDE43EFE8D828E838FF012AC858F
:1015B500B40100B39200E433FE7F008E828F832254
:06FB3100000000000000CE
:1015C500AE82AF83C28DBE0005BF00028008BE0497
:1015D5000DBF000A80047F3E80087F3F800490FF96
:1015E500FF228FB6108D0280FBAEBA7F00ADBB7CAB
:1015F50000EE4204EF4205EDC4CCC4540F6CCC544C
:101605000FCC6CCC8C82F5832290000122AE82AF88
:1016150083BE8010BF000D9061BD7401F090624BD8
:08162500F075F20090000122B3
:0DF98A0093F980C51512160E164144430076
:10162D00C013858113C082C083C0F0E5812404F509
:10163D0081A81308E608467003021772E513240605
:10164D00F8E4F608F6900EE5E0FAA3E0FF7DE57EFE
:10165D000EEA4F6037C005C006A813088605088638
:10166D0006C3EA9DEF9ED006D0055020E513240653
:10167D00F8A60208A60774022AFBE43FFC8B058C32
:10168D00068B828C83E0FAA3E0FF80C5A813088641
:10169D0003088604EB24FEFBEC34FFFCE513240465
:1016AD00F874022BF6E43C08F6E5132404F8868260
:1016BD00088683EAF0EFA3F08D828E83EBF0ECA326
:1016CD00F08B828C83E0FDA3E0FEEAB50539EFB522
:1016DD0006358D828E83A3A3E0FEA3E0FFE51324E0
:1016ED0004F88682088683EEF0EFA3F08B828C835C
:1016FD00E0FEA3E0FF8E828F83E0FEA3E0FF8B82EE
:10170D008C83EEF0EFA3F0E5132406F8E6084660AF
:10171D0054E5132406F88682088683E0FEA3E0FFD5
:10172D00EEB50341EFB5043D8B828C83E0FBA3E066
:10173D00FCE5132406F88682088683EBF0ECA3F013
:10174D00E5132406F8740226FEE40836FFE513249B
:10175D0004F88682088683E0FCA3E0FD8E828F83E9
:10176D00ECF0EDA3F0851381D01322A8811818E6B3
:10177D0024FC402EA8811818E62690178B7380063E
:10178D00800B8010801590F99775F0802290F99B51
:10179D0075F0802290F9BF75F08022901B4B75F08B
:1017AD00002290000075F000227F00EF240CFCE475
:1017BD003478FD7E008C828D838EF012AC85FC74A6
:1017CD000F5CFEECC4540FFDEE24F650088E04742D
:1017DD00372CFC800474302EFC8F06EE2EFE740F19
:1017ED00C39E25E0244DFEE4341BFB7A008E828BD4
:1017FD0083ECF0EAA3F0ED24F650088D0674372E35
:10180D00FE800474302DFE8F05ED2DFD740EC39DED
:10181D0025E0244DFDE4341BFC7B008D828C83EE92
:10182D00F0EBA3F00FBF080050030217B822900190
:10183D00F47404F0E4A3F09001F4E0FEA3E0FF43A0
:10184D0006089001F4EEF0EFA3F09001EF7408F0AC
:10185D007402A3F0E4A3F09001F27440F0E4A3F05D
:10186D009001ECF0A3F0A3F074ECC0E07401C0E0C3
:10187D00E4C0E07582031231E115811581158122D5
:10188D00121AEEAE82AF83EE30E01D901B6D740127
:10189D00F0758282C007C0061223E77582031223FA
:1018AD00E712183BD006D007EE30E305901B6DE430
:1018BD00F01267E0AF827E00EF30E1161267EAE5C5
:1018CD0082FF30E008901B6D7401F08005901B6D58
:1018DD00E4F0901B6DE0700122758203122F75E507
:1018ED00828583F030E0599001F4E0FEA3E0FFEE35
:1018FD0020E04DEE20E746900288E0F5F0A3E045AC
:10190D00F0603A9001F2E0FF7440C39FFF7E00C388
:10191D00EE9F5029EE2408F582E43402F583E0FDB4
:10192D00C007C006121936800D900288E0C0E0A3F2
:10193D00E0C0E08D8222D006D0070E80D202183B87
:10194D0022901B6EE0FFBF4009900202E4F0A3F06D
:10195D0080099002027402F0E4A3F0900202E0FE0E
:10196D00A3E0FF430608900202EEF0EFA3F0900112
:10197D00FAE4F0A3F0A3F09001FD7448F07402A313
:10198D00F0E4A3F0901B6EE0FF7E00900200EFF0FC
:10199D00EEA3F0901B6EF074FAC0E07401C0E0E4A9
:1019AD00C0E075828212340C15811581158122AF2C
:1019BD0082901B6DE07006901B6EE4F022901B6E02
:1019CD00E02448F582E43402F583EFF0901B6EE0DD
:1019DD002401F0E0FEBE40028008BFC0028003BFBC
:1019ED000A0302194E22AD82AE83AFF07C0112AC18
:1019FD0085FAA312AC85FBBA0005BB0002800BBAB9
:101A0D001305BB0102806B021AA7C007C006C005F3
:101A1D001217B61223031267D7901B6F75F00012C1
:101A2D001ADD901B6F75F0001267F8746FC0E074CB
:101A3D001BC0E0E4C0E0758282122EEC1581158189
:101A4D001581746FC0E0741BC0E0E4C0E0758203C3
:101A5D00122EEC158115811581D005D006D0077C8D
:101A6D00008D828E838FF074131274F8A37401129B
:101A7D0074F8EC700475820122A8811818B68302DF
:101A8D008018A8811818B682D6C007C006C00512E6
:101A9D00188DD005D006D00780C58D828E838FF02E
:101AAD00E41274F8A31274F875820322AE82AF8328
:101ABD00900288EEF0EFA3F022E4C0E0C0E0C0E0B9
:101ACD00901B6F75F000120D1F1581158115812268
:10F997000403090424035400650078006100730020
:10F9A700200049006E0073007400720075006D003E
:10F9B70065006E00740073002403430043003200A7
:10F9C700350033003100200055005300420020006D
:0CF9D70044006F006E0067006C006500CB
:10FB370022034100410041004100410041004100D2
:10FB470041004100410041004100410041004100A6
:0DFB570041000000000000F3190000000054
:101ADD00AFF0AE83E582901B7CF0EEA3F0EFA3F0A8
:101AED0022901B7FE0FEA3E0FF901B7FE4F0A3F0AC
:101AFD008E828F8322AE82AF83901B7FE04EF0A348
:101B0D00E04FF0901B7CE0FDA3E0FEA3E0FF901BF7
:101B1D007CE0F5F0A3E045F060098D828E838FF0B7
:101B2D000215632205810581AD82AE83AFF090026F
:101B3D009AE0FBA3E0FCEB30E003021BFAC005C00A
:101B4D0006C007900290E0FBA3E0FCE58124F8F8C5
:101B5D008602088607C3EA9BEF9CD007D006D00506
:101B6D00400AE58124FBF8A60308A60490029A74A6
:101B7D0048F0E4A3F0900290E0FBA3E0FCE58124A3
:101B8D00FBF8A98119E6F708E609F7A88118C3E65D
:101B9D009B08E69C501390029AE0FBA3E0FC4303E4
:101BAD000290029AEBF0ECA3F0900292E4F0A3F015
:101BBD00A3F0900295EDF0EEA3F0EFA3F090029854
:101BCD00A88118E6F008E6A3F090029C7403F0E4F7
:101BDD00A3F0A3F0A3F07492C0E07402C0E0E4C0DF
:101BED00E075820012340C15811581158115811552
:101BFD008122901B817401F0758200023BA5900239
:101C0D009AE0FEA3E0EE30E0012290029A7448F0D3
:101C1D00E4A3F0900292F0A3F0A3F0900295F0A34C
:101C2D00F0A3F0900298F0A3F090029C7405F0E4FC
:101C3D00A3F0A3F0A3F07492C0E07402C0E0E4C07E
:101C4D00E075820012340C15811581158122AD824B
:101C5D00AE83AFF090029AE0FBA3E0EB30E00122FF
:101C6D00E58124FBF8901B82E6F008E6A3F0901BBB
:101C7D0084EDF0EEA3F0EFA3F0E58124FDF88603EB
:101C8D00088604901B87EBF0ECA3F090029A740881
:101C9D00F0E4A3F0900292F0A3F0A3F0900295ED82
:101CAD00F0EEA3F0EFA3F0900298EBF0ECA3F09020
:101CBD00029C7402F0E4A3F0A3F0A3F07492C0E0D0
:101CCD007402C0E0E4C0E07582001231E1158115A7
:101CDD00811581227412C0E0E4C0E090FA1175F014
:101CED0080121B31158115812290028CE0FF90022C
:101CFD008EE0FDA3E0FEC0078D828E83121778ADB6
:101D0D0082AE83AFF01581ED4E7003021BFF8D8205
:101D1D008E838FF012AC85FC7B00C004C0038D82D6
:101D2D008E838FF0121B311581158122901BAEE031
:101D3D00FDA3E0FEA3E0FF74022DFAE43EFB8F0449
:101D4D008A828B838CF012AC85FAA312AC85FBC012
:101D5D0002C0038D828E838FF0121B311581158188
:101D6D00227401C0E0E4C0E09002A275F000121BE5
:101D7D00311581158122900001121B0290028CE019
:101D8D00FF9002A2E0FEB5070280119002A2EFF0D3
:101D9D008F82123DC2121C0B90000122121C0B905F
:101DAD000000227402C0E0E4C0E09002A075F000D3
:101DBD00121B31158115812290028EE0FEA3E0FFEA
:101DCD00EE547F600280157402C0E0E4C0E090F92B
:101DDD00E475F080121B3115811581228E82123D22
:101DED00C3E5828583F09002A3F0E5F0A3F07402C1
:101DFD00C0E0E4C0E09002A375F000121B31158124
:101E0D001581227402C0E0E4C0E090F9E475F08021
:101E1D00121B3115811581229002A2E07003021B65
:101E2D00FF7401C0E0E4C0E090F9E375F080121B8F
:101E3D0031158115812290028AE0FFBF0003021E39
:101E4D00ECBF0103021F13BF0203021F24BF800258
:101E5D00800EBF81028062BF8203021ED9021F6203
:101E6D0090028BE0FF6042BF0602800ABF0802802D
:101E7D0032BF0A41803990028CE0FEA3E0FFBF0122
:101E8D0002800ABF0202800BBF0314800C121CE1FA
:101E9D00021F66121D39021F66121CF6021F669084
:101EAD00000022121D6E021F66121DB0021F661267
:101EBD001E25021F669000002290028BE0FF60023B
:101ECD008006121E10021F669000002290028BE009
:101EDD00FF60028006121DC5021F66900000229051
:101EED00028BE0FFBF05028005BF0916800E901B17
:101EFD007BE043E001F0121C0B021F66121D8302F2
:101F0D001F669000002290028BE0FFBF0B05121C94
:101F1D000B80469000002290028BE0FFBF010280F3
:101F2D0003BF032D90028CE0FDA3E04D701EBF0397
:101F3D000104FF7E0090028EE0FDC007C0068D8279
:101F4D00123BCA15811581121C0B800D121BFF80CF
:101F5D000890000022900000229000012290029231
:101F6D00E4F0A3F0A3F0900295748AF07402A3F04C
:101F7D00E4A3F09002987408F0E4A3F090029A7430
:101F8D002CF0E4A3F090029C04F0E4A3F0A3F0A3E2
:101F9D00F07492C0E07402C0E0E4C0E075820012FB
:101FAD0031E115811581158122C082C083C0F005F4
:101FBD0081058105817C01E58124FBF886820886F7
:101FCD00830886F012AC85FAA312AC85FBBA000526
:101FDD00BB0002800BBAC305BB0102801D0222E4C7
:101FED007C00E58124FBF886820886830886F074E0
:101FFD00C31274F8A374011274F8EC7006758201A3
:10200D000222FCE58124F8F8B683030222E4E5817F
:10201D0024F8F8B682CA122F42AB82AC83EB4C6027
:10202D0036EB30E316C004C003121F6A9002A2E41F
:10203D00F0900008121B02D003D004EB30E10E909B
:10204D000002C004C003121B02D003D004EB30E227
:10205D0006900004121B02758200122F75AB82AC24
:10206D0083EB4C7003021FEDEB20E003021FED909C
:10207D00029AE0FBA3E0FCEB30E003021FEDEB3036
:10208D00E706121F6A021FEDEB20E5030221D39034
:10209D001B78E0FAA3E0FBA3E0FC7E087F001EBEE8
:1020AD00FF011FEE4F70F7EA4B70030221B8740366
:1020BD002AFDE43BFE8C078D828E838FF0A881185C
:1020CD001812AC85F6A312AC8508F6A312AC8508E0
:1020DD00F6C002C003C004E58124FBF886820886A1
:1020ED00830886F012AC85FC90028AE06204E581DB
:1020FD0024FBF8740126FAE40836FB0886078A8269
:10210D008B838FF012AC855CD004D003D0026003BA
:10211D000221A1C002C003C004E58124FBF87402B2
:10212D0026FDE40836FE0886078D828E838FF01219
:10213D00AC85FD90028BE06205E58124FBF874030C
:10214D0026FCE40836FE0886078C828E838FF012FB
:10215D00AC855DD004D003D0027039A881181874F5
:10216D000426FDE40836FE0886078D828E838FF0E7
:10217D0012AC85FDA312AC85FEC004C003C0028D58
:10218D00828E83120081AD82AE83D002D003D00443
:10219D00ED4E70178A828B838CF012AC85FAA312E8
:1021AD00AC85FBA312AC85FC0220B4EA4B70031284
:1021BD001BFF901B81E07003021FED901B81E4F06B
:1021CD00121F6A021FED90029CE0FCA3E0FDA3E04C
:1021DD00FEA3E0FFBC034FBD004CBE0049BF00464F
:1021ED0090029A7408F0E4A3F0900292F0A3F0A389
:1021FD00F0900295F0A3F0A3F0900298F0A3F09068
:10220D00029C7404F0E4A3F0A3F0A3F07492C0E078
:10221D007402C0E0E4C0E07582001231E115811551
:10222D00811581021FEDBC040FBD000CBE0009BF5E
:10223D000006121F6A021FEDBC0536BD0033BE003D
:10224D0030BF002D901B7BE030E020758200122402
:10225D0016E5828583F045F070F190028CE0F582F1
:10226D00123E08901B7BE053E0FEF0121F6A021F26
:10227D00EDBC020BBD0008BE0005BF0002800302CD
:10228D001FED901B82E0F5F0A3E045F06043900256
:10229D0098E0FEA3E0FF901B87E0FCA3E0FDECC3FC
:1022AD009EFEED9FFF901B84E0FBA3E0FCA3E0FDF1
:1022BD00C006C0071222C68011901B82E0C0E0A3A9
:1022CD00E0C0E08B828C838DF02215811581021F79
:1022DD00ED121C0B021FEDE58124FBF886820886AA
:1022ED00830886F0E41274F8A31274F8758203E57E
:1022FD008124FAF5812212318AE4C0E0C0E0C0E009
:10230D00901B8F75F000120D1F1581158115819091
:10231D001B8F75F000122F31748FC0E0741BC0E05D
:10232D00E4C0E0758200122EEC15811581158190A7
:10233D001B8975F000022345C082C083C0F07A78F6
:10234D007B1B7C008A828B838CF012AC85FDA312E3
:10235D00AC85FEA312AC85FFED4E60088D028E0399
:10236D008F0480E08A828B838CF0A8811818E61286
:10237D0074F8A308E61274F8A308E61274F8A8819D
:10238D00181886820886830886F0E41274F8A31262
:10239D0074F8A31274F815811581158122AD82AEE2
:1023AD0083AFF0901B78E0FAA3E0FBA3E0FC8D82F5
:1023BD008E838FF0EA1274F8A3EB1274F8A3EC126B
:1023CD0074F8901B78EDF0EEA3F0EFA3F0229002DD
:1023DD00A2E0FF7E008F828E8322023928023967A8
:1023ED00AF82C007123A86D0078F82023A02023AB4
:1023FD0086AF82E58124FDF8E6C0E008E6C0E08FF7
:0C240D0082123BCA1581158122023E0F8D
:09F9E30000000000600000431E5A
:10FB64000000000000000000000000000000000091
:10FB740000000000E6F980000000B61F000000004D
:1024190075C9002243C90822E5C9540F44A0F5C96A
:10242900E5C9540F4450F5C92275C903C2AF43C960
:10243900080080FDAF829002A5EFF08F820275D06F
:102449001275B19002A5E4F0229002A5E0F4FFF51F
:1024590082C00712248E9001901277DDD0078F82F7
:1024690002248E0275BE02243DAF829002A5E0428D
:10247900078F8202243DE582F4FF9002A5E052070E
:102489008F8202243DAF829002A5E062078F82020B
:10249900243DE5812409F5819002A6E0F5F0A3E049
:1024A90045F0700A9002A9E4F0A3F002260212781E
:1024B9002FAE82AF83E58124FCF8A60608A6079013
:1024C90002A6E0FBA3E0FCA3E0FD8B828C838DF0E8
:1024D900E58124F8F812AC85F6A312AC8508F674E8
:1024E900022BFAE43CFE8D078A828E838FF012ACB0
:1024F90085FAA312AC85FEE58124F8F8EA26FAEEFE
:102509000836FEE58124FCF8EAC396FAEE0896FE41
:10251900E58124FAF8A60208A60674042BFBE43C1C
:10252900FC8B828C838DF0A881181812AC85F6A3D8
:1025390012AC8508F6A312AC8508F6A8811818E62E
:10254900084670030225ECA881181886820886833C
:102559000886F012AC85FFA312AC85FAA881181879
:10256900740226FDE40836FC0886068D828C838E6B
:10257900F012AC85FDA312AC85FEED2FFBEE3AFC03
:10258900E58124FCF8EBC396FBEC0896FCE5812475
:10259900FAF8C3EB96EC0896501DED2FFFEE3AFAC8
:1025A900E58124FCF8EFC396FFEA0896FAE5812451
:1025B900FAF8A60708A602A8811818740426FFE4E9
:1025C9000836FE0886058F828E838DF0A88118183B
:1025D90012AC85F6A312AC8508F6A312AC8508F6F1
:1025E900022544E58124FCF8E58124FAF99002A941
:1025F900E726F009E70836A3F0E58124F7F58122FB
:10260900E581240FF581AD82AE83AFF07C0112AC78
:1026190085FAA312AC85FBBA0005BB0002800BBA90
:102629005905BB0002801E022A139002A6E4F0A3FA
:10263900F0A3F07C008D828E838FF074591274F8A8
:10264900A3E41274F8EC7006758201022A24E5816C
:1026590024EFF8B68702800302280DE58124ECF8FF
:10266900A9811919E6F708E609F708E609F79002BA
:10267900A6E0FAA3E0FBA3E0FCEA4B6078C005C042
:1026890006C00774072AFDE43BFE8C078D828E8302
:102699008FF012AC85FDA312AC85FEA312AC85FFA9
:1026A900E58124FBF8C005C006C007868208868339
:1026B9000886F01200831581158115816008D007FD
:1026C900D006D005802FD007D006D00574042AFA89
:1026D900E43BFB8A828B838CF012AC85FAA312ACA3
:1026E90085FBA312AC85FC9002A6EAF0EBA3F0EC03
:1026F900A3F00226779002A6E0FAA3E0FBA3E0FC90
:102709009002A6E0F5F0A3E045F0700302263CE54F
:102719008124F2F874042AF6E43B08F608A604E5D5
:102729008124F2F886820886830886F0E58124F5FB
:10273900F912AC85F7A312AC8509F7A312AC850988
:10274900F7E58124F5F8E60846700302263CC00542
:10275900C006C007E58124F2F8740726FDE40836AF
:10276900FE0886078D828E838FF012AC85FDA31239
:10277900AC85FEA312AC85FFE58124FBF8C005C03A
:1027890006C00786820886830886F01200831581B1
:10279900158115816008D007D006D0058048E581EC
:1027A90024F2F8740426FDE40836FE0886078D82B3
:1027B9008E838FF012AC85FDA312AC85FEA312ACFB
:1027C90085FFE58124EFF886820886830886F0ED87
:1027D9001274F8A3EE1274F8A3EF1274F8D007D0AC
:1027E90006D005022718E58124F2F8868208868337
:1027F9000886F012AC85FAA312AC85FBA312AC854E
:10280900FC022718E58124EFF8B68202800302262C
:102819003CE58124FBF8E4F608F60876009002A668
:10282900E0FAA3E0FBA3E0FCE58124F8F8A602089E
:10283900A60308A604E58124F8F8E6084670030211
:10284900263CE58124F8F886820886830886F0C04C
:1028590007C006C00512693BE5828583F0D005D023
:1028690006D00745F070030229D1C005C006C0078C
:10287900E58124F5F88605088606088607E581249A
:10288900F5F8E58124F2F9740726F7E4083609F723
:1028990008E609F7E58124F2F88682088683088626
:1028A900F012AC85FAA312AC85FBA312AC85FCC06F
:1028B90005C005C006C0077488C0E08A828B838C76
:1028C900F01214A9AE82AF83E58124FCF581D0050D
:1028D900EE4FD007D006D00560030229C2E5812456
:1028E900F5F886820886830886F0E41274F8A31244
:1028F90074F8A31274F8E58124FBF8E608466056DB
:10290900C005C006C007E58124F8F8740426FAE476
:102919000836FB088604E58124F5F8740426FDE4ED
:102929000836FE0886078D828E838FF012AC85FDEE
:10293900A312AC85FEA312AC85FF8A828B838CF02F
:10294900ED1274F8A3EE1274F8A3EF1274F8D0071D
:10295900D006D005802FE58124F8F8740426FAE41E
:102969000836FB0886048A828B838CF012AC85FAC0
:10297900A312AC85FBA312AC85FC9002A6EAF0EB8E
:10298900A3F0ECA3F0E58124F8F8740426FAE4082E
:1029990036FB0886048A828B838CF0E41274F8A3D0
:1029A9001274F8A31274F8C007C006C00512249B5C
:1029B900D005D006D00702281AC007C006C00512E4
:1029C9002A2BD005D006D007E58124F8F8E5812423
:1029D900FBF9E6F708E609F708E609F7E58124F8BF
:1029E900F8740426FAE40836FB0886048A828B8385
:1029F9008CF0E58124F8F812AC85F6A312AC8508B1
:102A0900F6A312AC8508F602283E8D828E838FF0DC
:102A1900E41274F8A31274F8758203E58124F1F5C0
:102A29008122901B9875F000021563C082C083C093
:102A3900F0058105810581122A2BE58124FBF8A97E
:102A4900811919740726F7E4083609F708E609F722
:102A5900A881181886820886830886F012AC85FD3D
:102A6900A312AC85FEA312AC85FFED4E7003022ABA
:102A7900F39002A6E0FDA3E0FEA3E0FFED4E606A3D
:102A8900E58124FBF8C005C006C007868208868355
:102A99000886F01200831581158115816002802B4B
:102AA900901B48E0FAA3E0FBA3E0FCA88118188674
:102AB900820886830886F0EA1274F8A3EB1274F888
:102AC900A3EC1274F812249B022B5C74042DFAE413
:102AD9003EFB8F048A828B838CF012AC85FDA31296
:102AE900AC85FEA312AC85FF8092901B48E0FDA344
:102AF900E0FEA3E0FFA8811818868208868308866D
:102B0900F0ED1274F8A3EE1274F8A3EF1274F8E55D
:102B19008124FBF8740426FDE40836FE0886079034
:102B290002A6E0FAA3E0FBA3E0FC8D828E838FF07E
:102B3900EA1274F8A3EB1274F8A3EC1274F8E581A5
:102B490024FBF89002A6E6F008E6A3F008E6A3F055
:102B590012249BE58124FAF58122AD82AE83AFF080
:102B6900C007C006C005E58124FAF8E6C0E008E61A
:102B7900C0E08D828E838FF012689115811581D006
:102B890005D006D0078D828E838FF0022A34AD825C
:102B9900AE83AFF0C007C006C0051268D7D005D014
:102BA90006D00774022DFAE43EFB8F048A828B83D8
:102BB9008CF0E58124FDF8E61274F8A308E6127496
:102BC900F88D828E838FF0022A34AD82AE83AFF006
:102BD900C007C006C0051268D7D005D006D0078D3A
:102BE900828E838FF0022A34AD82AE83AFF0C007A4
:102BF900C006C005126913D005D006D0078D828E94
:102C0900838FF0022A34C082C083C0F0A8811818CB
:102C190086820886830886F012AC85FBA312AC85F0
:102C2900FCE58124FAF88602088607EA2BFBEF3CCB
:102C3900FCA881181886820886830886F0EB12742E
:102C4900F8A3EC1274F812249B15811581158122C1
:102C5900AD82AE83AFF074072DFDE43EFE8D828E0A
:102C6900838FF012AC85FDA312AC85FEA312AC854F
:102C7900FFE4C0E0C0E0C0E08D828E838FF01200D7
:102C8900831581158115817003048001E4FD7F009E
:102C99008D828F8322AD82AE83AFF012AC85FBA308
:102CA90012AC85FC74022DFDE43EFE8D828E838F6D
:102CB900F012AC85FDA312AC85FEED2BFBEE3C8B2F
:102CC90082F5832212AC85FDA312AC858D82F58332
:102CD900229002A6E0FDA3E0FEA3E0ED4EB40100C0
:102CE900B39200E433FE7F008E828F8322122CDAA6
:102CF900E5828583F045F0600A9002A9E0FEA3E031
:102D0900FF80047E007F008E828F8322C082C08371
:102D1900C0F09002A6E0FAA3E0FBA3E0FCA88118AA
:102D290018C002C003C00486820886830886F01290
:102D390000831581158115816002802E74042AFD96
:102D4900E43BFE8C078D828E838FF012AC85FDA348
:102D590012AC85FEA312AC85FF9002A6EDF0EEA39E
:102D6900F0EFA3F012249B022DFEEA4B604274049B
:102D79002AFDE43BFE8C078D828E838FF012AC8591
:102D8900FDA312AC85FEA312AC85FFA8811818C05B
:102D990005C006C00786820886830886F01200836C
:102DA90015811581158160088D028E038F0480BA03
:102DB900EA4B604174042AFAE43BFBA881181874B1
:102DC9000426FDE40836FE0886078D828E838FF07F
:102DD90012AC85FDA312AC85FEA312AC85FF8A82D5
:102DE9008B838CF0ED1274F8A3EE1274F8A3EF1232
:102DF90074F812249BA8811818740426FDE4083677
:102E0900FE0886078D828E838FF0E41274F8A31270
:102E190074F8A31274F8A8811818740726FDE40839
:102E290036FE0886078D828E838FF0E41274F8A32C
:0E2E39001274F8A31274F81581158115812208
:09FB840000000009260000000049
:102E4700AE82AF83901BA9E04EF0A3E04FF0901B3A
:102E5700A6E0FDA3E0FEA3E0FF901BA6E0F5F0A32C
:102E6700E045F060098D828E838FF002156322C0E2
:102E770082C083C0F0A8811818740926FAE40836BE
:102E8700FB0886048A828B838CF012AC85FEA31222
:102E9700AC85FFE58124FAF8E6420608E642078A90
:102EA700828B838CF0EE1274F8A3EF1274F8A8816A
:102EB7001818740626FDE40836FE0886078D828EEC
:102EC700838FF012AC85FDA312AC85FEA312AC85EF
:102ED700FFED4E60098D828E838FF0121563158189
:102EE7001581158122AF8253077F7E00C007C00678
:102EF70090000D127513AE82AF8315811581EE24F4
:102F0700ACFEEF3402FF7D0074062EFEE43FFF8E19
:102F1700828F838DF0E58124FCF8E61274F8A3080C
:102F2700E61274F8A308E60274F8AFF0AE83E58200
:102F3700901BA6F0EEA3F0EFA3F02205810581AF69
:102F47009A530702539AFD901BA9E0FDA3E0FEA840
:102F57008118A60508A606901BA9E4F0A3F0EF4286
:102F67009AA8811886820886831581158122058192
:102F77000581AF8253077F7E00C007C00690000D12
:102F8700127513AE82AF8315811581EE24ACFEEF67
:102F97003402FF7D00AC9A530402539AFD74092E44
:102FA700FEE43FFF8E828F838DF0A8811812AC85D7
:102FB700F6A312AC8508F68E828F838DF0E4127427
:102FC700F8A31274F8EC429AA881188682088683BF
:102FD7001581158122E5812404F581AD82AE83AF89
:102FE700F0E58124FAF886037C00EB2BFBEC33FC3D
:102FF700EB2420FBEC3462FCA88118A60308A60486
:10300700E58124F8F8E58124FDF9E6F708E609F7F4
:10301700E58124FDF88602088604E58124FDF8167B
:10302700B6FF020816EA4C601AA88118868208863D
:1030370083E0FC8D828E838FF01274F8A3AD82AE8D
:103047008380CDE58124FCF58122E5812404F58187
:10305700AF827E00EF2FFFEE33FEEF2420FFEE342A
:1030670062FEA88118A60708A606E58124F8F88657
:1030770003088604088605E58124F6F8E58124FD22
:10308700F9E6F708E609F7E58124FDF886020886E0
:1030970007E58124FDF816B6FF020816EA4F601B04
:1030A7008B828C838DF012AC85FFA3AB82AC83A897
:1030B70081188682088683EFF080CCE58124FCF5B1
:1030C70081220581058105817F00EF75F00DA4241C
:1030D700ACFD740235F0FE74022DFBE43EFC8B82DE
:1030E7008C83E0FA20E2030231748D828E83A3A3DE
:1030F700A3A8811818E0F6A3E008F6A3E008F68B6A
:10310700828C83E4F08F82C0071223EDD007A88159
:103117001818E608466056C007E58124FDF87408CC
:1031270026FBE40836FC0886078B828C838FF01217
:10313700AC85FDA312AC85FE5305FE8B828C838F75
:10314700F0ED1274F8A3EE1274F8E58124FDF88609
:10315700820886830886F012AC851818F6A312AC8D
:103167008508F6A312AC8508F6D00780A10FBF0427
:103177000050030230D17582001238E8158115819D
:1031870015812290620F7403F090620FE030E7F927
:10319700D29043FE017F00EF75F00DA424ACFD74BF
:1031A7000235F0FE8D828E83A3A3E4F074062DF51D
:1031B70082E43EF583E4F0A3F0A3F00FBF040040E0
:1031C700D61230C9906207E4F0906209F0901BA113
:1031D70075F000129B76439A0222C082E58124078C
:1031E700F58124F9F8860553057F7E00C005C006E2
:1031F70090000D127513AD82AE8315811581ED24F4
:10320700ACFDEE3402FC7E0074022DFAE43CFB8E2A
:10321700078A828B838FF012AC85FA20E20302348F
:1032270005C005C004C006E58124F1F886020886BA
:103237000308860774032AFCE43BFD8F068C828D06
:10324700838EF012AC85FCA312AC85FDA312AC856E
:10325700EC4DD006D004D005704AE58124F9F8E694
:10326700547F6002803EC005C004C00674082AFC73
:10327700E43BFD8F068C828D838EF012AC85FCA318
:1032870012AC85ECD006D004D00530E3147401C02D
:10329700E0E4C0E08D828C838EF0122E76158115C6
:1032A70081023405C002C003C007AF9AE58124FD3F
:1032B700F874025FF6539AFDE58124FAF874032D3A
:1032C700F6E43C08F608A606D007D003D002E5814D
:1032D70024FDF886820886830886F0E58124FAF9BA
:1032E70012AC85F7A312AC8509F7A312AC8509F7D1
:1032F700E58124FAF8E608466028C002C003C00743
:10330700E58124F7F88602088603088607E5812405
:10331700FAF8A60208A60308A607D007D003D0022A
:1033270080ACE58124FDF886820886830886F0EA6A
:103337001274F8A3EB1274F8A3EF1274F8E5812462
:10334700F4F8E608466076C005C004C006E58124A7
:10335700F1F88602088603088607E58124F7F874E2
:10336700082AF6E43B08F608A607E58124F7F8865D
:10337700820886830886F012AC85FEA312AC85FD11
:10338700430601E58124F7F886820886830886F0DC
:10339700EE1274F8A3ED1274F88A828B838FF0E52E
:1033A7008124F1F812AC85F6A312AC8508F6A312B6
:1033B700AC8508F6D006D004D005023344E5812455
:1033C700F9F890620E747F56F00DBD00010C8D82E6
:1033D7008C838EF012AC85FF547F6002800C906264
:1033E70011E030E01412498B800F906214E030E056
:1033F7000853077F8F82124F37A881E6429AE581EB
:1034070024F8F58122E5812407F581AC828C0553E8
:10341700057F7E00C004C005C00690000D1275131D
:10342700AD82AE8315811581D004ED24ACFDEE3459
:1034370002FEA8811818A60508A606087600A88126
:103447001818740226FAE40836FB0886078A828B66
:10345700838FF012AC85FA20E203023606AF9AE5B5
:103467008124FDF874025FF6539AFDEC547F6002E5
:103477008068E58124F5F8860208860308860774C4
:10348700032AFAE43BFB8A828B838FF012AC85FA1E
:10349700A312AC85FBA312AC85FFEA4B7031906297
:1034A7000EE4F09062117448F07401C0E0E4C0E0EB
:1034B700E58124FCF886820886830886F0122E763A
:1034C70015811581E58124FDF8E6429A02360690BA
:1034D700620EE4F09062117440F0A881181874032A
:1034E70026FAE40836FB0886078A828B838FF01258
:1034F700AC85FCA312AC85FDA312AC85FEEC4D6038
:10350700088C028D038E0780E08A828B838FF0E51B
:103517008124F5F8E61274F8A308E61274F8A308F4
:10352700E61274F8E58124F5F8E608466069E58156
:1035370024F5F88605088606088607E58124FAF843
:1035470074082DF6E43E08F608A607E58124FAF884
:1035570086820886830886F012AC85FCA312AC85A8
:10356700FB430441E58124FAF886820886830886AE
:10357700F0EC1274F8A3EB1274F88D828E838FF03F
:10358700E58124F5F812AC85F6A312AC8508F6A3FD
:1035970012AC8508F6808DA8811818740126FDE401
:1035A7000836FE0886078D828E838FF012AC85FC65
:1035B70090620E747F5CF08D828E838FF012AC85E3
:1035C700FF547F600C53077F8F82124A04AF8280BB
:1035D7000712469EAE828E07E58124FDF8E6429AE1
:1035E700EF30E11B7401C0E0E4C0E0E58124FCF8A2
:1035F70086820886830886F0122E7615811581E566
:103607008124F9F58122906207E043E001F022AFBF
:1036170082747F5FFE53077F7D00C006C007C00529
:1036270090000D127513AD82AF8315811581D006F9
:10363700ED24ACFDEF3402FF7C008EF005F0740141
:10364700800225E0D5F0FBFE906207E04EF0740B98
:103657002DFAE43FFB8C068A828B838EF012AC85B1
:10366700FAA312AC85C423CAC423541F6ACA541FC1
:10367700CA6ACA906210EAF074022DFDE43FFF8D1A
:10368700828F838CF012AC85FD5305037F00BD024A
:103697000CBF0009906212E043E040F022906212F2
:1036A700E053E0BFF022AF82747F5FFE53077F7D58
:1036B70000C006C007C00590000D127513AD82AF9C
:1036C7008315811581D006ED24ACFDEF3402FF7C14
:1036D700008EF005F07401800225E0D5F0FBFE9026
:1036E7006209E04EF0740B2DFAE43FFB8C068A82E8
:1036F7008B838EF012AC85FAA312AC85C423CAC49F
:1037070023541F6ACA541FCA6ACA906213EAF07424
:10371700022DFDE43FFF8D828F838CF012AC85FD77
:103727005305037F00BD020CBF0009906215E043FB
:10373700E040F022906215E053E0BFF022C082E53E
:10374700812404F58124FCF8E58124FDF9747F5672
:10375700F7E58124FCF8860453047F7D00C004C08C
:103767000590000D127513AC82AD8315811581ECA0
:1037770024ACFCED3402FDA8811818A60408A605A0
:10378700087600A881181886820886830886F0E4E0
:103797001274F8A8811818740226FAE40836FE088D
:1037A70086078A828E838FF012AC85FD4305048AD3
:1037B700828E838FF0ED1274F8A88118187403268F
:1037C700FDE40836FE0886078D828E838FF0E412AB
:1037D70074F8A31274F8A31274F8A88118180426B1
:1037E700FDE40836FE0886078D828E838FF0E5811B
:1037F70024FCF8E61274F8A8811818740926FDE469
:103807000836FE0886078D828E838FF0E41274F8DF
:10381700A31274F8A8811818740B26FDE40836FE65
:10382700088607E58124FDF8E675F002A424ECF587
:103837008274F935F0F583E493FBA3E493FC8D825E
:103847008E838FF0EB1274F8A3EC1274F8AF9A53CF
:103857000702539AFDE58124FDF890620EE6F0E534
:103867008124FDF8E67009C00712360DD0078027BE
:10387700E58124FCF8E630E710E58124FCF8868230
:10388700C007123616D007800EE58124FCF8868221
:10389700C0071236ADD007EF429AE58124FBF581C8
:1038A70022AF828F0553057F7E00C007C005C00683
:1038B70090000D127513AD82AE8315811581D00767
:1038C700ED24ACFDEE3402FE7C0074022DFDE43ED7
:1038D700FE8D828E838CF074021274F88F82023709
:1038E70044AF828F0553057F7E00C007C005C00621
:1038F70090000D127513AD82AE8315811581D00727
:10390700ED24ACFDEE3402FE7C0074022DFDE43E96
:10391700FE8D828E838CF074011274F88F820237C9
:1039270044AF828F0553057F7E00C007C005C006E0
:1039370090000D127513AD82AE8315811581D007E6
:10394700ED24ACFDEE3402FE7C0074022DFDE43E56
:10395700FE8D828E838CF0E41274F88F82023744D6
:10396700AF828F0553057F7E00C007C005C0069054
:10397700000D127513AD82AE8315811581D007ED49
:1039870024ACFDEE3402FE7C0074022DFDE43EFE05
:103997008D828E838CF074031274F88F8202374401
:1039A700906207E053E0FEF090621174C0F022AF1E
:1039B70082906210E4F0747F5FF5F005F074018087
:1039C7000225E0D5F0FBF4FF906207E05FF090621C
:1039D700117408F022AF82906213E4F0747F5FF5F0
:1039E700F005F07401800225E0D5F0FBF4FF90624A
:1039F70009E05FF09062147408F022AF82747F5F71
:103A0700FE8F0453047F7D00C007C006C004C005B5
:103A170090000D127513AC82AD8315811581D00608
:103A2700D007EC24ACFCED3402FD7B0074022CFCC7
:103A3700E43DFD8C828D838BF012AC85FA5302FB3B
:103A47008C828D838BF0EA1274F8AD9A530502537A
:103A57009AFD90620EEEF0EE7009C0051239A7D0FC
:103A6700058018EF30E70B8F82C0051239B6D005F5
:103A770080098F82C0051239DCD005ED429A2205F4
:103A87008105810581AF8253077F7E00C007C0068D
:103A970090000D127513AE82AF8315811581EE2448
:103AA700ACFEEF3402FF7D00AC9A530402539AFD3B
:103AB70074032EFEE43FFF8E828F838DF0A881185A
:103AC7001812AC85F6A312AC8508F6A312AC8508CC
:103AD700F68E828F838DF0E41274F8A31274F8A324
:103AE7001274F8EC429AA8811818E608466050A8A4
:103AF700811818740826FDE40836FE0886078D82AB
:103B07008E838FF012AC85FBA312AC85FC5303FEAA
:103B17008D828E838FF0EB1274F8A3EC1274F8A8E1
:103B270081181886820886830886F012AC851818D3
:103B3700F6A312AC8508F6A312AC8508F680A71584
:103B4700811581158122AF82747F5FFE90620EF02E
:103B5700EE7015A8811818E660439002ABE4F09068
:103B67006211E043E021F022EF30E719A88118182D
:103B7700E66009906211E043E010F022906211E0E4
:103B870053E0EFF022A8811818E66009906214E06C
:103B970043E020F022906214E053E0DFF022AF828E
:103BA700747F5F24FB500122AE9A530602539AFD9D
:103BB700C0067401C0E08F82123B4D1581D006EE1E
:103BC700429A22C082E5812407F58124F9F8A98168
:103BD70019747F56F7E58124F9F8860453047F7D2D
:103BE70000C004C00590000D127513AC82AD83159B
:103BF700811581EC24ACFCED3402FB7D00A8811813
:103C0700E624FB5003023DBB74022CFAE43BFE8D15
:103C1700078A828E838FF012AC85FA20E203023D79
:103C2700BBAF9AA88174025FF6539AFDE58124F52C
:103C3700F8E60846601C8C828B838DF07401127441
:103C4700F8C0E0E58124F8F88682123B4D15810221
:103C57003DB68C828B838DF0E41274F8C005C004E6
:103C6700C003C0E0E58124F5F88682123B4D15813B
:103C7700D003D004D00574032CFAE43BFE8D078AE9
:103C8700828E838FF0E58124FAF812AC85F6A312B1
:103C9700AC8508F6A312AC8508F6E58124FAF8E6A8
:103CA70008467003023DA3E58124FAF8740826F656
:103CB700E40836F6E58124FAF886820886830886C2
:103CC700F0E58124FDF912AC85F7A312AC8509F75D
:103CD700E58124FDF808E620E003023DA3C004C007
:103CE70003C005E58124FAF886040886055304FE17
:103CF700E58124F7F886820886830886F0EC12743B
:103D0700F8A3ED1274F88A828E838FF012AC85FACD
:103D1700A312AC85FEA312AC85FF74082AFAE43E11
:103D2700FE8A828E838FF012AC85FAA312AC85EAE5
:103D3700D005D003D00430E320C005C004C003740D
:103D470001C0E0E4C0E08C828B838DF0122E7615E3
:103D5700811581D003D004D00574032CFCE43BFB10
:103D67008C828B838DF012AC85FAA312AC85FEA3EF
:103D770012AC85FF8A828E838FF012AC85FAA3126C
:103D8700AC85FEA312AC85FF8C828B838DF0EA1283
:103D970074F8A3EE1274F8A3EF1274F8A88118E66A
:103DA700600DE58124F9F8747F56F582124F37A824
:103DB70081E6429AE58124F8F5812222AF82747F59
:103DC7005FFE53077F7D00C006C007C00590000D4A
:103DD700127513AD82AF8315811581D006ED24AC22
:103DE700FDEF3402FC7F00EE24FB5004900000221C
:103DF7008D828C838FF012AC85FD7F008D828F833F
:103E070022E582906200F022AF8253077FAE9A5379
:103E17000602539AFD90620EEFF0EF700A9062115E
:103E2700E0FF5307028009906211E0FD74015DFF16
:103E3700EE429A7E008F828E8322C082C083C0F0BA
:103E47007E007D00A8811818E608467003023EDA56
:103E5700C006C005E58124FCF8740826FAE4083694
:103E6700FB0886048A828B838CF012AC85FAA31236
:103E7700AC85FBEA54607004EB30E006D005D00651
:103E87008051D005D006A8811818740626FAE408D0
:103E970036FB0886048A828B838CF012AC85FAA3E2
:103EA70012AC85FB8E048D07EA2CFAEB3FFB8A06E2
:103EB7008B05A881181886820886830886F012ACBD
:103EC700851818F6A312AC8508F6A312AC8508F678
:103ED700023E4B8E828D83158115811581220581C6
:103EE7000581AD82AE83AFF0ED4E7003023FC5741E
:103EF700082DFAE43EFB8F04C005C006C0078A827E
:103F07008B838CF012AC85FEA312AC85FFE5812470
:103F1700FCF8A60608A607E58124FCF8E58124F845
:103F2700F9E756FE09E70856FFE58124F6F8E6B5F6
:103F3700060E08E6B50709D007D006D005023FC52B
:103F4700E58124FCF874FE56FE0886078A828B8377
:103F57008CF0EE1274F8A3EF1274F84306808A828D
:103F67008B838CF0EE1274F8A3EF1274F8EED0077F
:103F7700D006D00530E330C005C006C007E5812470
:103F8700F3F886020886030886048A828B838CF0FE
:103F970012AC85FF4307028A828B838CF0EF127481
:103FA700F8D007D006D0058D828E838FF012AC85AE
:103FB700FDA312AC85FEA312AC85FF023EEF8D82F6
:103FC7008E838FF01581158122C082C083C0F0E5F2
:103FD700812404F5817C00C004E58124F9F8740686
:103FE70026FAE40836FB0886048A828B838CF01253
:103FF700AC85FAA312AC85FBE58124F4F8C3EA96F5
:10400700EB0896D004500AA88118A60208A60380D8
:104017000EE58124F5F8A98119E6F708E609F7C046
:1040270004E58124F4F8A9811919E6C397F608E68F
:104037000997F6E58124F9F8740626FAE40836FBB1
:104047000886048A828B838CF012AC85FEA312AC9F
:1040570085FFA8811818EEC396FEEF0896FF8A829F
:104067008B838CF0EE1274F8A3EF1274F8E58124B9
:10407700F9F8740326FDE40836FE0886078D828E5C
:10408700838FF012AC85FAA312AC85FBA312AC8523
:10409700FCC007C006C005C004E58124FAF8E6C0E5
:1040A700E008E6C0E0E58124F0F8E6C0E08A828B0C
:1040B700838CF0122FDC158115811581D004D00572
:1040C700D006D0078D828E838FF012AC85FAA312AB
:1040D700AC85FBA312AC85FCA8811818E62AFA0860
:1040E700E63BFB8D828E838FF0EA1274F8A3EB1206
:1040F70074F8A3EC1274F8D004E58124F5F8E60807
:1041070046605AE58124FAF8740826FDE40836FE6D
:104117000886078D828E838FF012AC85FAA312ACC6
:1041270085FB5302EE8D828E838FF0EA1274F8A31B
:10413700EB1274F8EA30E303430402E58124FAF84A
:1041470086820886830886F012AC851818F6A312B3
:10415700AC8508F6A312AC8508F6023FDEE581249C
:10416700F4F8E66031E58124FAF8740826FDE408DE
:1041770036FE0886078D828E838FF012AC85FAA3F0
:1041870012AC85FB4302108D828E838FF0EA127486
:10419700F8A3EB1274F8E58124FAF8740626FEE416
:1041A7000836FD0886078E828D838FF012AC85FE58
:1041B700A312AC85FF4E602EE58124FAF874082619
:1041C700FAE40836FB0886058A828B838DF0E58141
:1041D70024FDF812AC85F6A312AC8508F6E5812418
:1041E700FDF8E630E25EC004E58124F9F87408269C
:1041F700FFE40836FE0886058F828E838DF012ACA9
:1042070085FBA312AC85FA5303FE8F828E838DF054
:10421700EB1274F8A3EA1274F8EBD00430E303430B
:104227000402E58124FAF886820886830886F0125C
:10423700AC851818F6A312AC8508F6A312AC85084E
:10424700F60242C6E58124F4F8E66073EE4F602873
:10425700E58124FDF8E620E11FE58124FDF88606C7
:104267000886074306808A828B838DF0EE1274F8E6
:10427700A3EF1274F84304048A828B838DF012AC87
:1042870085FEA312AC85FF5306FE8A828B838DF0D1
:10429700EE1274F8A3EF1274F8EE30E3034304024E
:1042A700E58124FAF886820886830886F012AC85B1
:1042B7001818F6A312AC8508F6A312AC8508F6E524
:1042C7008124F7F8E675F00DA424ACFE740235F0EE
:1042D700FF8E828F83A3A3A3E58124FAF8E6F00873
:1042E700E6A3F008E6A3F08C82E58124F9F58122A4
:1042F700E5812407F58124FDFF7E007D409002AF14
:10430700E0FAA3E0FBA3E0FCC007C006C0057420E9
:10431700C0E0E4C0E07420C0E0E4C0E08A828B83A0
:104327008CF0123EE5AD82AE83AFF0E58124F9F55E
:1043370081A8811818A60508A60608A6079002AF47
:10434700A8811818E6F008E6A3F008E6A3F0A8810C
:104357001818E608466027A8811818740626FAE494
:104367000836FB0886048A828B838CF012AC85FEA4
:10437700A312AC85FFC3EE9408EF94005006758234
:104387000102452CA8811818E58124FAF97403263F
:10439700F7E4083609F708E609F7E58124FAF8860D
:1043A700820886830886F012AC85FDA312AC85FED1
:1043B700A312AC85FFC004C003C0027408C0E0E4C8
:1043C700C0E0C0E08D828E838FF0122FDC1581153F
:1043D700811581D002D003D0048A828B838CF0129E
:1043E700AC85FEA312AC85FFEE24F8FEEF34FFFF89
:1043F7008A828B838CF0EE1274F8A3EF1274F8A8FC
:10440700811818740826FDE40836FE0886078D8291
:104417008E838FF012AC85FBA312AC85FC5303FE91
:104427008D828E838FF0EB1274F8A3EC1274F8EB85
:1044370030E309E58124FDF8E64402F6E58124FA34
:10444700F886820886830886F012AC85FDA312AC35
:1044570085FEA312AC85FF74062DFAE43EFB8F049C
:104467008A828B838CF012AC85701274072DFDE461
:104477003EFE8D828E838FF012AC85603F90621175
:10448700E043E040F0E58124FAF886820886830855
:1044970086F012AC85FDA312AC85FEA312AC85FF96
:1044A7008D828E838FF012AC85FD30E7067E027F0A
:1044B7000080047E017F009002ABEEF0E58124FAD4
:1044C700F886820886830886F012AC85FDA312ACB5
:1044D70085FEA312AC85FF74082DFDE43EFEE58141
:1044E70024FAF886820886830886F0ED1274F8A30A
:1044F700EE1274F8A3EF1274F8A8811818868208D0
:1045070086830886F012AC85FDA312AC85FEA31244
:10451700AC85FF9002AFEDF0EEA3F0EFA3F0E581DD
:1045270024FDF88682E58124F9F58122E5812406B8
:10453700F5817F007E009002AFA8811818E0F6A3EE
:10454700E008F6A3E008F6906216E0FAFBA88118E7
:1045570018E608467006758201024697A881181862
:10456700E58124FBF9740826F7E4083609F708E61D
:1045770009F7E58124FBF886820886830886F0120E
:10458700AC85FDA312AC85FCED5460700302461C9C
:10459700C0078D028C07430280E58124FAF88682E2
:1045A7000886830886F0EA1274F8A3EF1274F853AA
:1045B70002FEE58124FAF886820886830886F0EAF7
:1045C7001274F8A3EF1274F8EAD00730E3027F02FF
:1045D7008B028A051AED6006906220E080F4A881BC
:1045E700181886820886830886F012AC85FBA3120A
:1045F700AC85FCA312AC85FD9002AFEBF0ECA3F009
:10460700EDA3F0906211E043E048F09002ABE4F0D4
:104617008F82024697A881181886820886830886A3
:10462700F0C006C003123E41AD82AF83D003D0066F
:104637008B027C00C3ED9AEF9C5005758201805078
:10464700C0069002B7E0FDA3E0FF7E00C3EB9DEE3E
:104657009FD00650027E01C006C006C002C004E417
:10466700C0E0E58124F9F886820886830886F0127F
:104677003FD0AF82E58124FCF581D006EE6007903C
:1046870002ABE4F08008906211E043E040F08F82D3
:10469700E58124FAF58122E581240DF5819002AFA9
:1046A70024F9F8E0F6A3E008F6A3E008F69002B7CD
:1046B700E0FBA3E0FCE58124FCF8A60308A604A818
:1046C70081181876007A00906211E020E110C0028C
:1046D7009002ABE0FABA0204D0028008D0027582D9
:1046E70000024984E58124F9F8E608467005F58259
:1046F700024984C002E58124F8F8740826FAE40820
:1047070036FB0886048A828B838CF012AC85FAA369
:1047170012AC85FBEAD00220E606758200024984C6
:10472700E58124F9F8E608467003024938C002E536
:104737008124F8F8740626FAE40836FB0886048A0A
:10474700828B838CF012AC85FAA312AC85FBE581D2
:1047570024F3F8A60208A603E58124F3F8E58124EB
:10476700FBF9C3E69708E60997D0025014E58124C0
:10477700F4F88603088604A88118A60308A604800F
:104787000EE58124FCF8A98119E6F708E609F7C0C8
:1047970002E58124FBF8A9811919E6C397F608E613
:1047A7000997F6E58124F8F8740626FAE40836FB3B
:1047B7000886048A828B838CF012AC85FEA312AC28
:1047C70085FFA8811818EEC396FEEF0896FF8A8228
:1047D7008B838CF0EE1274F8A3EF1274F8E5812442
:1047E700F8F8E58124F5F9740326F7E4083609F7A4
:1047F70008E609F7E58124F5F886820886830886A6
:10480700F012AC85FDA312AC85FEA312AC85FFC0E8
:1048170004C003C002E58124FBF8E6C0E008E6C057
:10482700E0C005C006C007758200123051E581243B
:10483700FBF581D002D003D004E58124F5F8868208
:104847000886830886F012AC85FDA312AC85FEA30B
:1048570012AC85FFA8811818E62DFD08E63EFEE597
:104867008124F5F886820886830886F0ED1274F8AD
:10487700A3EE1274F8A3EF1274F88A828B838CF07C
:1048870012AC85FAA312AC85FB4AD0026003024939
:104897002BE58124F9F8740826FDE40836FE08861E
:1048A700078D828E838FF012AC85FDA312AC85FE37
:1048B700ED30E119E58124FCF8E608466073A8812C
:1048C70018187601E58124FCF8E4F608F6E581245A
:1048D700F9F8740826FDE40836FE0886078D828EEF
:1048E700838FF012AC85FBA312AC85FC5303FE8DBE
:1048F700828E838FF0EB1274F8A3EC1274F8EB300E
:10490700E303430202E58124F9F8868208868308D7
:1049170086F012AC851818F6A312AC8508F6A31218
:10492700AC8508F6E58124FCF8E6084660030247F3
:1049370027E58124FCF8E608466006A88118187662
:10494700019002AFE58124F9F8E6F008E6A3F00844
:10495700E6A3F0A8811818E6700AE58124F9F8E6BD
:104967000846700F9002ABE4F0906211E043E00A52
:10497700F08008906211E043E002F08A82E581242A
:10498700F3F5812290620EE4F0906211E0FF30E2CD
:1049970009906211E4F09002ABF0EF30E40B906203
:1049A700117480F09002ABE4F0EF30E0339002AB8B
:1049B700E070071242F7AF828005124533AF82EFEE
:1049C70030E118C0077401C0E0E4C0E09002AC75A4
:1049D700F000122E7615811581D007EF30E0012205
:1049E70012469EE58230E1147401C0E0E4C0E09015
:1049F70002AC75F000122E761581158122C082E572
:104A0700812409F581A88118187600E58124F7F833
:104A1700860453047F7D00C004C00590000D127505
:104A270013AC82AD8315811581EC24ACFCED340207
:104A3700FB7D00740B2CFAE43BFE8D078A828E8384
:104A47008FF012AC85FAA312AC85FEE58124FCF841
:104A5700A60208A6068C828B838DF012AC856006B1
:104A6700758200024D8B74032CFCE43BFF8C828F14
:104A7700838DF012AC85FAA312AC85FBA312AC852B
:104A8700FEEA4B601A74082AFAE43BFB8A828B839E
:104A97008EF012AC85FAA312AC85FBEA20E6067508
:104AA7008200024D8BE58124F7F8E58124FBF97438
:104AB7007F56F78C828F838DF012AC85FAA312ACE8
:104AC70085FBA312AC85FEEA4B7003024D7D74068D
:104AD7002AFAE43BFB8A828B838EF012AC85FAA319
:104AE70012AC85FBE58124FCF8C3EA96EB089650E7
:104AF7000C8B06A88118A60208A606800EE581245D
:104B0700FCF8A98119E6F708E609F7E58124FCF81E
:104B1700A98119E6C397F608E60997F68C828F8371
:104B27008DF012AC85FAA312AC85FBA312AC85FEFF
:104B3700E58124F8F874062AF6E43B08F608A60689
:104B4700E58124F8F886820886830886F012AC850A
:104B5700FEA312AC85FBA88118EEC396FEEB089660
:104B6700FBE58124F8F886820886830886F0EE1232
:104B770074F8A3EB1274F88C828F838DF012AC85D6
:104B8700FAA312AC85FBA312AC85FE74032AFAE4E0
:104B97003BFB8A828B838EF012AC85FAA312AC851D
:104BA700FBA312AC85FEC007C005C004E58124FC49
:104BB700F8E6C0E008E6C0E0C002C003C006E58131
:104BC70024F3F88682123051E58124FBF581D00465
:104BD700D005D0078C828F838DF012AC85FAA31293
:104BE700AC85FBA312AC85FEE58124F8F874032A93
:104BF700F6E43B08F608A606E58124F8F88682085D
:104C070086830886F012AC85FAA312AC85FBA31243
:104C1700AC85FEA88118E62AFA08E63BFBE5812465
:104C2700F8F886820886830886F0EA1274F8A3EB00
:104C37001274F8A3EE1274F88C828F838DF012AC85
:104C470085FAA312AC85FBA312AC85FEC004C0078E
:104C5700C00574062AFCE43BFD8E078C828D838F8A
:104C6700F012AC85FCA312AC854CD005D007D0045C
:104C77006003024D7074082AFAE43BFB8A828B8337
:104C87008EF012AC85FAA312AC85FBEA30E116E58B
:104C97008124FCF8E608467003024D7DE58124FC7B
:104CA700F8E4F608F68C828F838DF012AC85FAA3B0
:104CB70012AC85FBA312AC85FEE58124F8F87408D5
:104CC7002AF6E43B08F608A606E58124F8F886826A
:104CD7000886830886F012AC85FEA312AC85FB53C9
:104CE70006FEE58124F8F886820886830886F0EEBA
:104CF7001274F8A3EB1274F88C828F838DF012ACC8
:104D070085FAA312AC85FBA312AC85FE74082AFAB8
:104D1700E43BFB8A828B838EF012AC85FAA312AC3C
:104D270085EA30E308A8811818E64402F68C828FDA
:104D3700838DF012AC85FAA312AC85FBA312AC8568
:104D4700FE8A828B838EF012AC85FAA312AC85FBA8
:104D5700A312AC85FE8C828F838DF0EA1274F8A3C0
:104D6700EB1274F8A3EE1274F8E58124FCF8E60858
:104D7700466003024ABA906211E043E001F0A8815D
:104D870018188682E58124F6F58122C082E5812400
:104D970009F58124FDF87600E58124F7F8860453A8
:104DA700047F7D00C004C00590000D127513AC820E
:104DB700AD8315811581EC24ACFCED3402FDA8818F
:104DC7001818A60408A605087600A8811818740301
:104DD70026FAE40836FE0886078A828E838FF0E576
:104DE7008124F8F812AC85F6A312AC8508F6A31255
:104DF700AC8508F6E58124F8F8E608467006758262
:104E070001024F30C002C006C007E58124F5F874DF
:104E17000826FAE40836FE0886078A828E838FF012
:104E270012AC85A312AC85D007D006D00230E0269D
:104E3700A881181886820886830886F07401127480
:104E4700F8906214E020E508906214E043E020F057
:104E5700758200024F30C002C006C007906217E09B
:104E6700FE7F00906216E0FA7D004207ED4206E5FC
:104E77008124F8F8A60708A606E58124F5F88682B6
:104E87000886830886F0C002123E41AE82AF83D007
:104E970002E58124F8F8C3EE96EF0896D007D0060E
:104EA700D0025006758201024F30A8811818740B82
:104EB70026FBE40836FC0886058B828C838DF0126E
:104EC700AC85FBA312AC85FCE58124FBF8C3E69B0C
:104ED70008E69C5007E58124FDF87601E58124FB6F
:104EE700F886040886058A828E838FF012AC85FACD
:104EF700A312AC85FEA312AC85FFE58124FDF8E67D
:104F0700C0E0C004C005E58124F4F8E6C0E08A8269
:104F17008E838FF0123FD0AF82E58124FCF581901C
:104F27006214E053E0FEF08F82E58124F6F58122DA
:104F3700AF828F0553057F7E00C007C005C006906E
:104F4700000D127513AD82AE8315811581D007ED63
:104F570024ACFDEE3402FC7E0090620EEFF090620E
:104F670014E0FB30E608906214E053E0BFF0EB304A
:104F7700E208906214E053E0FBF0EB30E02B8F8205
:104F8700C006C005C004124D92AF82D004D005D030
:104F970006EF30E1147401C0E0E4C0E08D828C8339
:104FA7008EF0122E761581158122AF828F0553055B
:104FB7007F7E00C007C005C00690000D127513ADB7
:104FC70082AE8315811581D007ED24ACFDEE340246
:104FD700FC7E0090620EEFF0906211E0FB30E50876
:104FE700906211E053E0DFF0EB30E208906211E0ED
:104FF70053E0FBF0EB20E02B8F82C006C005C00416
:10500700124A04AF82D004D005D006EF30E1147401
:1050170001C0E0E4C0E08D828C838EF0122E7615FD
:10502700811581220581906202E0FF906207E052BC
:1050370007906204E0FE906209E05206A881A60686
:10504700906206E0FD90620BE0FC5205EF604DEFC9
:1050570030E00BC007C00512498BD005D0077C0193
:10506700C0058CF005F07A017B008006EA2AFAEB8E
:1050770033FBD5F0F78F057E00ED5202EE5203D0D9
:1050870005EA4B60118C82C007C005C004124FB1FE
:10509700D004D005D0070CBC060040C4A881E66048
:1050A700417E01C0058EF005F07B017C008006EB98
:1050B7002BFBEC33FCD5F0F7A8811886027D00EABC
:1050C7005203ED5204D005EB4C60118E82C007C02D
:1050D70006C005124F37D005D006D0070EBE060012
:1050E70040C1ED30E211C007C0051230C990000879
:1050F700122E47D005D007ED30E10E900004C0070F
:10510700C005122E47D005D007ED30E00E90000203
:10511700C007C005122E47D005D007EF7008A88139
:10512700E67003ED60067E017F0080047E007F004D
:055137008E82158122AB
:0CF9EC000800080040004000000000007F
:0AFB8D000000002B500000000000F3
:10513C0020921590000A75F04012693BAE82AF8345
:10514C00EE4F6004C2008002D200A200E433FE7F66
:10515C00008E828F8322AE82AF83BE8105BF000298
:10516C008006BE820FBF000C7404558DFF7E008F2D
:10517C00828E832290000022AE82AF83BE8005BF58
:10518C0000028008BE814ABF0047800D538CFD533E
:10519C00F4FB53FEFB90000122E58124FDF8E608A8
:1051AC00466024E58D20E225E4C0E0C0E090000AD2
:1051BC0075F04012689115811581538AFBC2EB433F
:1051CC008D04439A108006538DFB539AEF90000187
:1051DC00229000002220931590000A75F04012696D
:1051EC003BAE82AF83EE4F6004C2008002D200A2BD
:1051FC0000E433FE7F008E828F8322AE82AF83BEAB
:10520C008105BF00028006BE820FBF000C740855DA
:10521C008DFF7E008F828E832290000022AE82AFA3
:10522C0083BE8005BF00028008BE814ABF00478054
:10523C000D538CFD53F4F753FEF790000122E581DA
:10524C0024FDF8E608466024E58D20E325E4C0E063
:10525C00C0E090000A75F0401268911581158153D9
:10526C008AF7C2EB438D08439A108006538DF7538F
:10527C009AEF9000012290000022C020C0E0C0F004
:10528C00C082C083C007C006C005C004C003C002F2
:10529C00C001C000C0D075D000C2AFE58A30E22F8B
:1052AC0090000A75F04012693BE5828583F045F069
:1052BC00601D7410C0E0E4C0E090000A75F040126C
:1052CC0068911581158190F9F875F0801262C3E52B
:1052DC008A30E32F90000A75F04012693BE5828515
:1052EC0083F045F0601D7410C0E0E4C0E090000A4B
:1052FC0075F0401268911581158190FA0175F08056
:10530C001262C3538AFBC2EB538AF7C2EBD2AFD003
:10531C00D0D000D001D002D003D004D005D006D01C
:0C532C0007D083D082D0F0D0E0D0203237
:10F9F8000AFA803C51845162510AFA80E151295235
:09FA08000752427574746F6E0020
:10533800027F9305810581AD82AE83AFF0A8811805
:10534800E4F608F69002E0E0F5F0A3E045F0700816
:10535800A88118760108760074022DFAE43EFB8FC6
:10536800048A828B838CF0E58124F7F8E61274F8BE
:10537800A308E61274F874042DFAE43EFB8F048A3D
:10538800828B838CF0E58124F4F8E61274F8A30884
:10539800E61274F8A308E61274F88D828E838FF0F3
:1053A800E58124FBF8E61274F8A308E61274F89075
:1053B80002E0EDF0EEA3F0EFA3F0A88118B601111A
:1053C80008B6000DE58124FBF88682088683127FE3
:1053D800A190000015811581220581058105819024
:1053E80002E0E0FDA3E0FEA3E0FF9002E0E0F5F0BC
:1053F800A3E045F070030254AFA8811818A6050869
:10540800A60608A6079002E0E4F0A3F0A3F0A8819E
:105418001818740226FAE40836FB0886048A828B78
:10542800838CF012AC85FAA312AC85FBA8811818FE
:10543800740426FCE40836FE0886078C828E838F67
:10544800F012AC85FCA312AC85FEA312AC85FFC09C
:1054580003C002C004C006C0071254668012C0020E
:10546800C003E58124F5F886820886830886F02241
:10547800158115811581D002D0039002E0E0FDA3CB
:10548800E0FEA3E0FF9002E0E0F5F0A3E045F06065
:10549800168D828E838FF012AC85FDA312AC85FE2B
:0E54A8008D828E83127FA115811581158122C0
:0600E000E478FFF6D8FDF4
:1054B600C082C083C0F005810581901BACE0FBA3D0
:1054C600E0FCE58124F8F8E62BFB08E63CFCC3E4A7
:1054D6009B74089C4077A88118E4F608F6A8811802
:1054E600E58124F8F9C3E69708E609975047901B2B
:1054F600ACE0FAA3E0FFA88118E62AFA08E63FFF27
:10550600EA24ABFAEF3405FFE58124FCF8A98119FA
:10551600E726FC09E70836FD0886068C828D838E11
:10552600F012AC85FC8A828F83F0A8811806B6003B
:1055360002080680A8901BACE0FEA3E0FFE58124EC
:10554600F8F8901BACE62EF008E63FA3F0E58124C0
:10555600FBF581220581AD82AE83AFF0901BABE0F7
:105566007003025601E581F924FCF88604A7048934
:10557600047B007A40C007C006C0057401C0E0E4A1
:10558600C0E08C828B838AF01254B615811581D0C7
:1055960005D006D007E58124FCF8E6C0E008E6C0A1
:1055A600E08D828E838FF01254B61581158190029C
:1055B600F97448F0E4A3F09002F474ABF07405A318
:1055C600F0E4A3F0901BACE0FEA3E0FF9002F7EE40
:1055D600F0EFA3F09002F1E4F0A3F0A3F074F1C0B1
:1055E600E07402C0E0E4C0E075828212340C1581DA
:1055F60015811581901BACE4F0A3F0158122E5819D
:105606002408F581AD82AE83AFF0901BABE070034A
:105616000259C1E58124F5F8E6C0E008E6C0E08D50
:10562600828E838FF01254B615811581A88118E4F5
:10563600F608F6E58124F9F8E4F608F6901BACE0E6
:10564600FAA3E0FBC3EA9440EB6480948050030223
:10565600580FA88118C3E6940408E6648094804035
:105666000302580FA88118860208E65403A2E0CA6E
:1056760013CA13A2E0CA13CA13CAFBEA246BF58243
:10568600EB3404F583743FF0EA246BFEEB3404FF3D
:105696000EBE00010F8F057F00C003C002743FC01D
:1056A600E0E4C0E074ABC0E07405C0E0E4C0E08EA6
:1056B600828D838FF01288FFE58124FBF581D0026D
:1056C600D003E58124F9F8E624F1FE08E63402FF6A
:1056D600E58124FBF874082EF6E43F08F6E58124FC
:1056E600FBF886820886837440F0E4A3F0E5812403
:1056F600FBF88682088683E0FCA3E0FD430408E508
:105706008124FBF88682088683ECF0EDA3F0E58120
:1057160024FBF874032EF6E43F08F6EA246BFAEB52
:105726003404FB7D00E58124FBF88682088683EA43
:10573600F0EBA3F0EDA3F074062EF582E43FF583BB
:105746007440F0E4A3F08E828F83F0A3F0A3F0A858
:105756008118C39674800886F063F08095F0503502
:10576600A8811886051DC2D575F00EED30E704B286
:10577600D5F404A430D50AF42401C5F0F43400C5E8
:10578600F024F1F582740235F0F5837D00EEF0EF3A
:10579600A3F0EDA3F07E3F7F00901BACE0FCA3E0FE
:1057A600FDC3EE9CEF64808DF063F08095F0502889
:1057B600EE24C1FCEF34FFFDEC24ABFCED3405FD1B
:1057C600EE24ABF582EF3405F583E0FB8C828D8306
:1057D600F00EBE00C40F80C1901BACE0FEA3E0FF3C
:1057E600EE24C1FEEF34FFFF901BACEEF0EFA3F00A
:1057F600E58124F9F8740E26F6E40836F6A8811831
:1058060006B600020806025642901BACE0FEA3E074
:10581600FFC3EE9440EF6480948040030259AAA827
:105826008118C3E6940408E6648094804003025914
:10583600AA901BACE0FEA3E0FFE58124FDF8A606D6
:1058460008A607A88118860408E65403A2E0CC132C
:10585600CC13A2E0CC13CC13CCFDEC246BFAED34C4
:1058660004FBE58124FDF886078A828B83EFF0EC42
:10587600246BFEED3404FF0EBE00010F7B00C00555
:10588600C004E58124FBF8E6C0E008E6C0E074AB9E
:10589600C0E07405C0E0E4C0E08E828F838BF01216
:1058A60088FFE58124FBF58124FDF8E6C0E008E6E3
:1058B600C0E090000E127513AE82AF83158115817C
:1058C600D004D005EE24F1FEEF3402FFE58124FB7F
:1058D600F874082EF6E43F08F6E58124FBF8868284
:1058E6000886837440F0E4A3F0E58124FBF8868201
:1058F600088683E0FAA3E0FB430208E58124FBF86F
:105906008682088683EAF0EBA3F0E58124FBF8742F
:10591600032EF6E43F08F6EC246BFCED3404FB7D25
:1059260000E58124FBF88682088683ECF0EBA3F081
:10593600EDA3F074062EFCE43FFDE58124FDF88618
:10594600020886038C828D83EAF0EBA3F08E828FA9
:1059560083E4F0A3F0A3F0A88118C39674800886A8
:10596600F063F08095F05035A8811886051DC2D5E4
:1059760075F00EED30E704B2D5F404A430D50AF480
:105986002401C5F0F43400C5F024F1F58274023523
:10599600F0F5837D00EEF0EFA3F0EDA3F0901BACE5
:1059A600E4F0A3F074F1C0E07402C0E0E4C0E07576
:1059B600828212340C158115811581E58124F8F552
:1059C6008122058105810581AF82900DABE0FE60E5
:1059D60008BE01028041025C29BF03005003025C3D
:1059E6002E900DAFEFF0E4A3F0900469F0A3F090D1
:1059F6000469E0FDA3E0FE90046974012DF0E43E25
